{
  "address": "0x44A953ACB71f6b933866cAcA5812aE46F9b68b1F",
  "abi": [
    {
      "inputs": [],
      "stateMutability": "nonpayable",
      "type": "constructor"
    },
    {
      "anonymous": false,
      "inputs": [
        {
          "indexed": true,
          "internalType": "address",
          "name": "owner",
          "type": "address"
        },
        {
          "indexed": true,
          "internalType": "address",
          "name": "approved",
          "type": "address"
        },
        {
          "indexed": true,
          "internalType": "uint256",
          "name": "tokenId",
          "type": "uint256"
        }
      ],
      "name": "Approval",
      "type": "event"
    },
    {
      "anonymous": false,
      "inputs": [
        {
          "indexed": true,
          "internalType": "address",
          "name": "owner",
          "type": "address"
        },
        {
          "indexed": true,
          "internalType": "address",
          "name": "operator",
          "type": "address"
        },
        {
          "indexed": false,
          "internalType": "bool",
          "name": "approved",
          "type": "bool"
        }
      ],
      "name": "ApprovalForAll",
      "type": "event"
    },
    {
      "anonymous": false,
      "inputs": [
        {
          "indexed": true,
          "internalType": "address",
          "name": "from",
          "type": "address"
        },
        {
          "indexed": true,
          "internalType": "address",
          "name": "to",
          "type": "address"
        },
        {
          "indexed": true,
          "internalType": "uint256",
          "name": "tokenId",
          "type": "uint256"
        }
      ],
      "name": "Transfer",
      "type": "event"
    },
    {
      "inputs": [
        {
          "internalType": "address",
          "name": "to",
          "type": "address"
        },
        {
          "internalType": "uint256",
          "name": "tokenId",
          "type": "uint256"
        }
      ],
      "name": "approve",
      "outputs": [],
      "stateMutability": "nonpayable",
      "type": "function"
    },
    {
      "inputs": [
        {
          "internalType": "address",
          "name": "owner",
          "type": "address"
        }
      ],
      "name": "balanceOf",
      "outputs": [
        {
          "internalType": "uint256",
          "name": "",
          "type": "uint256"
        }
      ],
      "stateMutability": "view",
      "type": "function"
    },
    {
      "inputs": [],
      "name": "base",
      "outputs": [
        {
          "internalType": "string",
          "name": "",
          "type": "string"
        }
      ],
      "stateMutability": "view",
      "type": "function"
    },
    {
      "inputs": [
        {
          "internalType": "uint256",
          "name": "tokenId",
          "type": "uint256"
        }
      ],
      "name": "getApproved",
      "outputs": [
        {
          "internalType": "address",
          "name": "",
          "type": "address"
        }
      ],
      "stateMutability": "view",
      "type": "function"
    },
    {
      "inputs": [],
      "name": "getNewTokenCounter",
      "outputs": [
        {
          "internalType": "uint256",
          "name": "",
          "type": "uint256"
        }
      ],
      "stateMutability": "view",
      "type": "function"
    },
    {
      "inputs": [],
      "name": "getTokenCounter",
      "outputs": [
        {
          "internalType": "uint256",
          "name": "",
          "type": "uint256"
        }
      ],
      "stateMutability": "view",
      "type": "function"
    },
    {
      "inputs": [
        {
          "internalType": "address",
          "name": "owner",
          "type": "address"
        },
        {
          "internalType": "address",
          "name": "operator",
          "type": "address"
        }
      ],
      "name": "isApprovedForAll",
      "outputs": [
        {
          "internalType": "bool",
          "name": "",
          "type": "bool"
        }
      ],
      "stateMutability": "view",
      "type": "function"
    },
    {
      "inputs": [
        {
          "internalType": "uint256",
          "name": "tokenId",
          "type": "uint256"
        }
      ],
      "name": "mintNft",
      "outputs": [],
      "stateMutability": "nonpayable",
      "type": "function"
    },
    {
      "inputs": [],
      "name": "mintNftWithFee",
      "outputs": [],
      "stateMutability": "payable",
      "type": "function"
    },
    {
      "inputs": [],
      "name": "name",
      "outputs": [
        {
          "internalType": "string",
          "name": "",
          "type": "string"
        }
      ],
      "stateMutability": "view",
      "type": "function"
    },
    {
      "inputs": [
        {
          "internalType": "uint256",
          "name": "tokenId",
          "type": "uint256"
        }
      ],
      "name": "ownerOf",
      "outputs": [
        {
          "internalType": "address",
          "name": "",
          "type": "address"
        }
      ],
      "stateMutability": "view",
      "type": "function"
    },
    {
      "inputs": [
        {
          "internalType": "address",
          "name": "from",
          "type": "address"
        },
        {
          "internalType": "address",
          "name": "to",
          "type": "address"
        },
        {
          "internalType": "uint256",
          "name": "tokenId",
          "type": "uint256"
        }
      ],
      "name": "safeTransferFrom",
      "outputs": [],
      "stateMutability": "nonpayable",
      "type": "function"
    },
    {
      "inputs": [
        {
          "internalType": "address",
          "name": "from",
          "type": "address"
        },
        {
          "internalType": "address",
          "name": "to",
          "type": "address"
        },
        {
          "internalType": "uint256",
          "name": "tokenId",
          "type": "uint256"
        },
        {
          "internalType": "bytes",
          "name": "_data",
          "type": "bytes"
        }
      ],
      "name": "safeTransferFrom",
      "outputs": [],
      "stateMutability": "nonpayable",
      "type": "function"
    },
    {
      "inputs": [
        {
          "internalType": "address",
          "name": "operator",
          "type": "address"
        },
        {
          "internalType": "bool",
          "name": "approved",
          "type": "bool"
        }
      ],
      "name": "setApprovalForAll",
      "outputs": [],
      "stateMutability": "nonpayable",
      "type": "function"
    },
    {
      "inputs": [
        {
          "internalType": "bytes4",
          "name": "interfaceId",
          "type": "bytes4"
        }
      ],
      "name": "supportsInterface",
      "outputs": [
        {
          "internalType": "bool",
          "name": "",
          "type": "bool"
        }
      ],
      "stateMutability": "view",
      "type": "function"
    },
    {
      "inputs": [],
      "name": "symbol",
      "outputs": [
        {
          "internalType": "string",
          "name": "",
          "type": "string"
        }
      ],
      "stateMutability": "view",
      "type": "function"
    },
    {
      "inputs": [
        {
          "internalType": "uint256",
          "name": "tokenId",
          "type": "uint256"
        }
      ],
      "name": "tokenURI",
      "outputs": [
        {
          "internalType": "string",
          "name": "",
          "type": "string"
        }
      ],
      "stateMutability": "view",
      "type": "function"
    },
    {
      "inputs": [],
      "name": "totalSupply",
      "outputs": [
        {
          "internalType": "uint256",
          "name": "",
          "type": "uint256"
        }
      ],
      "stateMutability": "view",
      "type": "function"
    },
    {
      "inputs": [
        {
          "internalType": "address",
          "name": "from",
          "type": "address"
        },
        {
          "internalType": "address",
          "name": "to",
          "type": "address"
        },
        {
          "internalType": "uint256",
          "name": "tokenId",
          "type": "uint256"
        }
      ],
      "name": "transferFrom",
      "outputs": [],
      "stateMutability": "nonpayable",
      "type": "function"
    },
    {
      "inputs": [],
      "name": "withdraw",
      "outputs": [],
      "stateMutability": "nonpayable",
      "type": "function"
    }
  ],
  "transactionHash": "0xfcdef206109e32b7cd7425dad053b042aaf36655030ef706914c823622b0d46c",
  "args": [],
  "numDeployments": 1,
  "solcInputHash": "5a92e422b2f4b5d29d83e8bef22a54dc",
  "bytecode": "0x6080604052734772fb92e6606c87f7cddccdb880f7677768815c600860006101000a81548173ffffffffffffffffffffffffffffffffffffffff021916908373ffffffffffffffffffffffffffffffffffffffff1602179055507354a8c5cf7149c067f8cd7653afa0af599b0f1fcf600960006101000a81548173ffffffffffffffffffffffffffffffffffffffff021916908373ffffffffffffffffffffffffffffffffffffffff160217905550348015620000bb57600080fd5b506040518060400160405280601081526020017f4172626950756e6b73205265626f6f74000000000000000000000000000000008152506040518060400160405280600c81526020017f4150554e4b535245424f4f54000000000000000000000000000000000000000081525081600090805190602001906200014092919062000173565b5080600190805190602001906200015992919062000173565b505050600060068190555061271060078190555062000288565b828054620001819062000252565b90600052602060002090601f016020900481019282620001a55760008555620001f1565b82601f10620001c057805160ff1916838001178555620001f1565b82800160010185558215620001f1579182015b82811115620001f0578251825591602001919060010190620001d3565b5b50905062000200919062000204565b5090565b5b808211156200021f57600081600090555060010162000205565b5090565b7f4e487b7100000000000000000000000000000000000000000000000000000000600052602260045260246000fd5b600060028204905060018216806200026b57607f821691505b6020821081141562000282576200028162000223565b5b50919050565b612e5680620002986000396000f3fe60806040526004361061011f5760003560e01c80635001f3b5116100a0578063a22cb46511610064578063a22cb465146103d5578063b4edebc4146103fe578063b88d4fde14610408578063c87b56dd14610431578063e985e9c51461046e5761011f565b80635001f3b5146102da5780636352211e146103055780636e02007d1461034257806370a082311461036d57806395d89b41146103aa5761011f565b80630ef3f2fb116100e75780630ef3f2fb1461021b57806318160ddd1461024657806323b872dd146102715780633ccfd60b1461029a57806342842e0e146102b15761011f565b806301ffc9a71461012457806306fdde0314610161578063081812fc1461018c578063095ea7b3146101c95780630d730acc146101f2575b600080fd5b34801561013057600080fd5b5061014b60048036038101906101469190611b5a565b6104ab565b6040516101589190611ba2565b60405180910390f35b34801561016d57600080fd5b5061017661058d565b6040516101839190611c56565b60405180910390f35b34801561019857600080fd5b506101b360048036038101906101ae9190611cae565b61061f565b6040516101c09190611d1c565b60405180910390f35b3480156101d557600080fd5b506101f060048036038101906101eb9190611d63565b6106a4565b005b3480156101fe57600080fd5b5061021960048036038101906102149190611cae565b6107bc565b005b34801561022757600080fd5b506102306108f6565b60405161023d9190611db2565b60405180910390f35b34801561025257600080fd5b5061025b610900565b6040516102689190611db2565b60405180910390f35b34801561027d57600080fd5b5061029860048036038101906102939190611dcd565b61090a565b005b3480156102a657600080fd5b506102af61096a565b005b3480156102bd57600080fd5b506102d860048036038101906102d39190611dcd565b610a3d565b005b3480156102e657600080fd5b506102ef610a5d565b6040516102fc9190611c56565b60405180910390f35b34801561031157600080fd5b5061032c60048036038101906103279190611cae565b610a79565b6040516103399190611d1c565b60405180910390f35b34801561034e57600080fd5b50610357610b2b565b6040516103649190611db2565b60405180910390f35b34801561037957600080fd5b50610394600480360381019061038f9190611e20565b610b35565b6040516103a19190611db2565b60405180910390f35b3480156103b657600080fd5b506103bf610bed565b6040516103cc9190611c56565b60405180910390f35b3480156103e157600080fd5b506103fc60048036038101906103f79190611e79565b610c7f565b005b610406610c95565b005b34801561041457600080fd5b5061042f600480360381019061042a9190611fee565b610d48565b005b34801561043d57600080fd5b5061045860048036038101906104539190611cae565b610daa565b6040516104659190611c56565b60405180910390f35b34801561047a57600080fd5b5061049560048036038101906104909190612071565b610e3d565b6040516104a29190611ba2565b60405180910390f35b60007f80ac58cd000000000000000000000000000000000000000000000000000000007bffffffffffffffffffffffffffffffffffffffffffffffffffffffff1916827bffffffffffffffffffffffffffffffffffffffffffffffffffffffff1916148061057657507f5b5e139f000000000000000000000000000000000000000000000000000000007bffffffffffffffffffffffffffffffffffffffffffffffffffffffff1916827bffffffffffffffffffffffffffffffffffffffffffffffffffffffff1916145b80610586575061058582610ed1565b5b9050919050565b60606000805461059c906120e0565b80601f01602080910402602001604051908101604052809291908181526020018280546105c8906120e0565b80156106155780601f106105ea57610100808354040283529160200191610615565b820191906000526020600020905b8154815290600101906020018083116105f857829003601f168201915b5050505050905090565b600061062a82610f3b565b610669576040517f08c379a000000000000000000000000000000000000000000000000000000000815260040161066090612184565b60405180910390fd5b6004600083815260200190815260200160002060009054906101000a900473ffffffffffffffffffffffffffffffffffffffff169050919050565b60006106af82610a79565b90508073ffffffffffffffffffffffffffffffffffffffff168373ffffffffffffffffffffffffffffffffffffffff161415610720576040517f08c379a000000000000000000000000000000000000000000000000000000000815260040161071790612216565b60405180910390fd5b8073ffffffffffffffffffffffffffffffffffffffff1661073f610fa7565b73ffffffffffffffffffffffffffffffffffffffff16148061076e575061076d81610768610fa7565b610e3d565b5b6107ad576040517f08c379a00000000000000000000000000000000000000000000000000000000081526004016107a4906122a8565b60405180910390fd5b6107b78383610faf565b505050565b3373ffffffffffffffffffffffffffffffffffffffff16600860009054906101000a900473ffffffffffffffffffffffffffffffffffffffff1673ffffffffffffffffffffffffffffffffffffffff16636352211e836040518263ffffffff1660e01b815260040161082e9190611db2565b60206040518083038186803b15801561084657600080fd5b505afa15801561085a573d6000803e3d6000fd5b505050506040513d601f19601f8201168201806040525081019061087e91906122dd565b73ffffffffffffffffffffffffffffffffffffffff16146108d4576040517f08c379a00000000000000000000000000000000000000000000000000000000081526004016108cb9061237c565b60405180910390fd5b60016006546108e391906123cb565b6006819055506108f33382611068565b50565b6000600754905090565b6000612af8905090565b61091b610915610fa7565b82611086565b61095a576040517f08c379a000000000000000000000000000000000000000000000000000000000815260040161095190612493565b60405180910390fd5b610965838383611164565b505050565b600960009054906101000a900473ffffffffffffffffffffffffffffffffffffffff1673ffffffffffffffffffffffffffffffffffffffff163373ffffffffffffffffffffffffffffffffffffffff16146109c457600080fd5b60003373ffffffffffffffffffffffffffffffffffffffff16476040516109ea906124e4565b60006040518083038185875af1925050503d8060008114610a27576040519150601f19603f3d011682016040523d82523d6000602084013e610a2c565b606091505b5050905080610a3a57600080fd5b50565b610a5883838360405180602001604052806000815250610d48565b505050565b604051806060016040528060368152602001612deb6036913981565b6000806002600084815260200190815260200160002060009054906101000a900473ffffffffffffffffffffffffffffffffffffffff169050600073ffffffffffffffffffffffffffffffffffffffff168173ffffffffffffffffffffffffffffffffffffffff161415610b22576040517f08c379a0000000000000000000000000000000000000000000000000000000008152600401610b199061256b565b60405180910390fd5b80915050919050565b6000600654905090565b60008073ffffffffffffffffffffffffffffffffffffffff168273ffffffffffffffffffffffffffffffffffffffff161415610ba6576040517f08c379a0000000000000000000000000000000000000000000000000000000008152600401610b9d906125fd565b60405180910390fd5b600360008373ffffffffffffffffffffffffffffffffffffffff1673ffffffffffffffffffffffffffffffffffffffff168152602001908152602001600020549050919050565b606060018054610bfc906120e0565b80601f0160208091040260200160405190810160405280929190818152602001828054610c28906120e0565b8015610c755780601f10610c4a57610100808354040283529160200191610c75565b820191906000526020600020905b815481529060010190602001808311610c5857829003601f168201915b5050505050905090565b610c91610c8a610fa7565b83836113cb565b5050565b612af76007541115610cdc576040517f08c379a0000000000000000000000000000000000000000000000000000000008152600401610cd390612669565b60405180910390fd5b66b1a2bc2ec500003414610d25576040517f08c379a0000000000000000000000000000000000000000000000000000000008152600401610d1c906126d5565b60405180910390fd5b6001600754610d3491906123cb565b600781905550610d4633600754611068565b565b610d59610d53610fa7565b83611086565b610d98576040517f08c379a0000000000000000000000000000000000000000000000000000000008152600401610d8f90612493565b60405180910390fd5b610da484848484611538565b50505050565b6060610db582610f3b565b610df4576040517f08c379a0000000000000000000000000000000000000000000000000000000008152600401610deb90612767565b60405180910390fd5b604051806060016040528060368152602001612deb60369139610e1683611594565b604051602001610e2792919061280f565b6040516020818303038152906040529050919050565b6000600560008473ffffffffffffffffffffffffffffffffffffffff1673ffffffffffffffffffffffffffffffffffffffff16815260200190815260200160002060008373ffffffffffffffffffffffffffffffffffffffff1673ffffffffffffffffffffffffffffffffffffffff16815260200190815260200160002060009054906101000a900460ff16905092915050565b60007f01ffc9a7000000000000000000000000000000000000000000000000000000007bffffffffffffffffffffffffffffffffffffffffffffffffffffffff1916827bffffffffffffffffffffffffffffffffffffffffffffffffffffffff1916149050919050565b60008073ffffffffffffffffffffffffffffffffffffffff166002600084815260200190815260200160002060009054906101000a900473ffffffffffffffffffffffffffffffffffffffff1673ffffffffffffffffffffffffffffffffffffffff1614159050919050565b600033905090565b816004600083815260200190815260200160002060006101000a81548173ffffffffffffffffffffffffffffffffffffffff021916908373ffffffffffffffffffffffffffffffffffffffff160217905550808273ffffffffffffffffffffffffffffffffffffffff1661102283610a79565b73ffffffffffffffffffffffffffffffffffffffff167f8c5be1e5ebec7d5bd14f71427d1e84f3dd0314c0f7b2291e5b200ac8c7c3b92560405160405180910390a45050565b6110828282604051806020016040528060008152506116f5565b5050565b600061109182610f3b565b6110d0576040517f08c379a00000000000000000000000000000000000000000000000000000000081526004016110c7906128b0565b60405180910390fd5b60006110db83610a79565b90508073ffffffffffffffffffffffffffffffffffffffff168473ffffffffffffffffffffffffffffffffffffffff16148061114a57508373ffffffffffffffffffffffffffffffffffffffff166111328461061f565b73ffffffffffffffffffffffffffffffffffffffff16145b8061115b575061115a8185610e3d565b5b91505092915050565b8273ffffffffffffffffffffffffffffffffffffffff1661118482610a79565b73ffffffffffffffffffffffffffffffffffffffff16146111da576040517f08c379a00000000000000000000000000000000000000000000000000000000081526004016111d190612942565b60405180910390fd5b600073ffffffffffffffffffffffffffffffffffffffff168273ffffffffffffffffffffffffffffffffffffffff16141561124a576040517f08c379a0000000000000000000000000000000000000000000000000000000008152600401611241906129d4565b60405180910390fd5b611255838383611750565b611260600082610faf565b6001600360008573ffffffffffffffffffffffffffffffffffffffff1673ffffffffffffffffffffffffffffffffffffffff16815260200190815260200160002060008282546112b091906129f4565b925050819055506001600360008473ffffffffffffffffffffffffffffffffffffffff1673ffffffffffffffffffffffffffffffffffffffff168152602001908152602001600020600082825461130791906123cb565b92505081905550816002600083815260200190815260200160002060006101000a81548173ffffffffffffffffffffffffffffffffffffffff021916908373ffffffffffffffffffffffffffffffffffffffff160217905550808273ffffffffffffffffffffffffffffffffffffffff168473ffffffffffffffffffffffffffffffffffffffff167fddf252ad1be2c89b69c2b068fc378daa952ba7f163c4a11628f55a4df523b3ef60405160405180910390a46113c6838383611755565b505050565b8173ffffffffffffffffffffffffffffffffffffffff168373ffffffffffffffffffffffffffffffffffffffff16141561143a576040517f08c379a000000000000000000000000000000000000000000000000000000000815260040161143190612a74565b60405180910390fd5b80600560008573ffffffffffffffffffffffffffffffffffffffff1673ffffffffffffffffffffffffffffffffffffffff16815260200190815260200160002060008473ffffffffffffffffffffffffffffffffffffffff1673ffffffffffffffffffffffffffffffffffffffff16815260200190815260200160002060006101000a81548160ff0219169083151502179055508173ffffffffffffffffffffffffffffffffffffffff168373ffffffffffffffffffffffffffffffffffffffff167f17307eab39ab6107e8899845ad3d59bd9653f200f220920489ca2b5937696c318360405161152b9190611ba2565b60405180910390a3505050565b611543848484611164565b61154f8484848461175a565b61158e576040517f08c379a000000000000000000000000000000000000000000000000000000000815260040161158590612b06565b60405180910390fd5b50505050565b606060008214156115dc576040518060400160405280600181526020017f300000000000000000000000000000000000000000000000000000000000000081525090506116f0565b600082905060005b6000821461160e5780806115f790612b26565b915050600a826116079190612b9e565b91506115e4565b60008167ffffffffffffffff81111561162a57611629611ec3565b5b6040519080825280601f01601f19166020018201604052801561165c5781602001600182028036833780820191505090505b5090505b600085146116e95760018261167591906129f4565b9150600a856116849190612bcf565b603061169091906123cb565b60f81b8183815181106116a6576116a5612c00565b5b60200101907effffffffffffffffffffffffffffffffffffffffffffffffffffffffffffff1916908160001a905350600a856116e29190612b9e565b9450611660565b8093505050505b919050565b6116ff83836118f1565b61170c600084848461175a565b61174b576040517f08c379a000000000000000000000000000000000000000000000000000000000815260040161174290612b06565b60405180910390fd5b505050565b505050565b505050565b600061177b8473ffffffffffffffffffffffffffffffffffffffff16611acb565b156118e4578373ffffffffffffffffffffffffffffffffffffffff1663150b7a026117a4610fa7565b8786866040518563ffffffff1660e01b81526004016117c69493929190612c84565b602060405180830381600087803b1580156117e057600080fd5b505af192505050801561181157506040513d601f19601f8201168201806040525081019061180e9190612ce5565b60015b611894573d8060008114611841576040519150601f19603f3d011682016040523d82523d6000602084013e611846565b606091505b5060008151141561188c576040517f08c379a000000000000000000000000000000000000000000000000000000000815260040161188390612b06565b60405180910390fd5b805181602001fd5b63150b7a0260e01b7bffffffffffffffffffffffffffffffffffffffffffffffffffffffff1916817bffffffffffffffffffffffffffffffffffffffffffffffffffffffff1916149150506118e9565b600190505b949350505050565b600073ffffffffffffffffffffffffffffffffffffffff168273ffffffffffffffffffffffffffffffffffffffff161415611961576040517f08c379a000000000000000000000000000000000000000000000000000000000815260040161195890612d5e565b60405180910390fd5b61196a81610f3b565b156119aa576040517f08c379a00000000000000000000000000000000000000000000000000000000081526004016119a190612dca565b60405180910390fd5b6119b660008383611750565b6001600360008473ffffffffffffffffffffffffffffffffffffffff1673ffffffffffffffffffffffffffffffffffffffff1681526020019081526020016000206000828254611a0691906123cb565b92505081905550816002600083815260200190815260200160002060006101000a81548173ffffffffffffffffffffffffffffffffffffffff021916908373ffffffffffffffffffffffffffffffffffffffff160217905550808273ffffffffffffffffffffffffffffffffffffffff16600073ffffffffffffffffffffffffffffffffffffffff167fddf252ad1be2c89b69c2b068fc378daa952ba7f163c4a11628f55a4df523b3ef60405160405180910390a4611ac760008383611755565b5050565b6000808273ffffffffffffffffffffffffffffffffffffffff163b119050919050565b6000604051905090565b600080fd5b600080fd5b60007fffffffff0000000000000000000000000000000000000000000000000000000082169050919050565b611b3781611b02565b8114611b4257600080fd5b50565b600081359050611b5481611b2e565b92915050565b600060208284031215611b7057611b6f611af8565b5b6000611b7e84828501611b45565b91505092915050565b60008115159050919050565b611b9c81611b87565b82525050565b6000602082019050611bb76000830184611b93565b92915050565b600081519050919050565b600082825260208201905092915050565b60005b83811015611bf7578082015181840152602081019050611bdc565b83811115611c06576000848401525b50505050565b6000601f19601f8301169050919050565b6000611c2882611bbd565b611c328185611bc8565b9350611c42818560208601611bd9565b611c4b81611c0c565b840191505092915050565b60006020820190508181036000830152611c708184611c1d565b905092915050565b6000819050919050565b611c8b81611c78565b8114611c9657600080fd5b50565b600081359050611ca881611c82565b92915050565b600060208284031215611cc457611cc3611af8565b5b6000611cd284828501611c99565b91505092915050565b600073ffffffffffffffffffffffffffffffffffffffff82169050919050565b6000611d0682611cdb565b9050919050565b611d1681611cfb565b82525050565b6000602082019050611d316000830184611d0d565b92915050565b611d4081611cfb565b8114611d4b57600080fd5b50565b600081359050611d5d81611d37565b92915050565b60008060408385031215611d7a57611d79611af8565b5b6000611d8885828601611d4e565b9250506020611d9985828601611c99565b9150509250929050565b611dac81611c78565b82525050565b6000602082019050611dc76000830184611da3565b92915050565b600080600060608486031215611de657611de5611af8565b5b6000611df486828701611d4e565b9350506020611e0586828701611d4e565b9250506040611e1686828701611c99565b9150509250925092565b600060208284031215611e3657611e35611af8565b5b6000611e4484828501611d4e565b91505092915050565b611e5681611b87565b8114611e6157600080fd5b50565b600081359050611e7381611e4d565b92915050565b60008060408385031215611e9057611e8f611af8565b5b6000611e9e85828601611d4e565b9250506020611eaf85828601611e64565b9150509250929050565b600080fd5b600080fd5b7f4e487b7100000000000000000000000000000000000000000000000000000000600052604160045260246000fd5b611efb82611c0c565b810181811067ffffffffffffffff82111715611f1a57611f19611ec3565b5b80604052505050565b6000611f2d611aee565b9050611f398282611ef2565b919050565b600067ffffffffffffffff821115611f5957611f58611ec3565b5b611f6282611c0c565b9050602081019050919050565b82818337600083830152505050565b6000611f91611f8c84611f3e565b611f23565b905082815260208101848484011115611fad57611fac611ebe565b5b611fb8848285611f6f565b509392505050565b600082601f830112611fd557611fd4611eb9565b5b8135611fe5848260208601611f7e565b91505092915050565b6000806000806080858703121561200857612007611af8565b5b600061201687828801611d4e565b945050602061202787828801611d4e565b935050604061203887828801611c99565b925050606085013567ffffffffffffffff81111561205957612058611afd565b5b61206587828801611fc0565b91505092959194509250565b6000806040838503121561208857612087611af8565b5b600061209685828601611d4e565b92505060206120a785828601611d4e565b9150509250929050565b7f4e487b7100000000000000000000000000000000000000000000000000000000600052602260045260246000fd5b600060028204905060018216806120f857607f821691505b6020821081141561210c5761210b6120b1565b5b50919050565b7f4552433732313a20617070726f76656420717565727920666f72206e6f6e657860008201527f697374656e7420746f6b656e0000000000000000000000000000000000000000602082015250565b600061216e602c83611bc8565b915061217982612112565b604082019050919050565b6000602082019050818103600083015261219d81612161565b9050919050565b7f4552433732313a20617070726f76616c20746f2063757272656e74206f776e6560008201527f7200000000000000000000000000000000000000000000000000000000000000602082015250565b6000612200602183611bc8565b915061220b826121a4565b604082019050919050565b6000602082019050818103600083015261222f816121f3565b9050919050565b7f4552433732313a20617070726f76652063616c6c6572206973206e6f74206f7760008201527f6e6572206e6f7220617070726f76656420666f7220616c6c0000000000000000602082015250565b6000612292603883611bc8565b915061229d82612236565b604082019050919050565b600060208201905081810360008301526122c181612285565b9050919050565b6000815190506122d781611d37565b92915050565b6000602082840312156122f3576122f2611af8565b5b6000612301848285016122c8565b91505092915050565b7f43616c6c6572206d757374206f776e20746865206f726967696e616c20746f6b60008201527f656e2e0000000000000000000000000000000000000000000000000000000000602082015250565b6000612366602383611bc8565b91506123718261230a565b604082019050919050565b6000602082019050818103600083015261239581612359565b9050919050565b7f4e487b7100000000000000000000000000000000000000000000000000000000600052601160045260246000fd5b60006123d682611c78565b91506123e183611c78565b9250827fffffffffffffffffffffffffffffffffffffffffffffffffffffffffffffffff038211156124165761241561239c565b5b828201905092915050565b7f4552433732313a207472616e736665722063616c6c6572206973206e6f74206f60008201527f776e6572206e6f7220617070726f766564000000000000000000000000000000602082015250565b600061247d603183611bc8565b915061248882612421565b604082019050919050565b600060208201905081810360008301526124ac81612470565b9050919050565b600081905092915050565b50565b60006124ce6000836124b3565b91506124d9826124be565b600082019050919050565b60006124ef826124c1565b9150819050919050565b7f4552433732313a206f776e657220717565727920666f72206e6f6e657869737460008201527f656e7420746f6b656e0000000000000000000000000000000000000000000000602082015250565b6000612555602983611bc8565b9150612560826124f9565b604082019050919050565b6000602082019050818103600083015261258481612548565b9050919050565b7f4552433732313a2062616c616e636520717565727920666f7220746865207a6560008201527f726f206164647265737300000000000000000000000000000000000000000000602082015250565b60006125e7602a83611bc8565b91506125f28261258b565b604082019050919050565b60006020820190508181036000830152612616816125da565b9050919050565b7f546f6b656e206d757374206265203c3d2031303939392e000000000000000000600082015250565b6000612653601783611bc8565b915061265e8261261d565b602082019050919050565b6000602082019050818103600083015261268281612646565b9050919050565b7f596f75206d7573742070617920302e30352045544820746f206d696e742e0000600082015250565b60006126bf601e83611bc8565b91506126ca82612689565b602082019050919050565b600060208201905081810360008301526126ee816126b2565b9050919050565b7f4552433732314d657461646174613a2055524920717565727920666f72206e6f60008201527f6e6578697374656e7420746f6b656e0000000000000000000000000000000000602082015250565b6000612751602f83611bc8565b915061275c826126f5565b604082019050919050565b6000602082019050818103600083015261278081612744565b9050919050565b600081905092915050565b600061279d82611bbd565b6127a78185612787565b93506127b7818560208601611bd9565b80840191505092915050565b7f2e6a736f6e000000000000000000000000000000000000000000000000000000600082015250565b60006127f9600583612787565b9150612804826127c3565b600582019050919050565b600061281b8285612792565b91506128278284612792565b9150612832826127ec565b91508190509392505050565b7f4552433732313a206f70657261746f7220717565727920666f72206e6f6e657860008201527f697374656e7420746f6b656e0000000000000000000000000000000000000000602082015250565b600061289a602c83611bc8565b91506128a58261283e565b604082019050919050565b600060208201905081810360008301526128c98161288d565b9050919050565b7f4552433732313a207472616e736665722066726f6d20696e636f72726563742060008201527f6f776e6572000000000000000000000000000000000000000000000000000000602082015250565b600061292c602583611bc8565b9150612937826128d0565b604082019050919050565b6000602082019050818103600083015261295b8161291f565b9050919050565b7f4552433732313a207472616e7366657220746f20746865207a65726f2061646460008201527f7265737300000000000000000000000000000000000000000000000000000000602082015250565b60006129be602483611bc8565b91506129c982612962565b604082019050919050565b600060208201905081810360008301526129ed816129b1565b9050919050565b60006129ff82611c78565b9150612a0a83611c78565b925082821015612a1d57612a1c61239c565b5b828203905092915050565b7f4552433732313a20617070726f766520746f2063616c6c657200000000000000600082015250565b6000612a5e601983611bc8565b9150612a6982612a28565b602082019050919050565b60006020820190508181036000830152612a8d81612a51565b9050919050565b7f4552433732313a207472616e7366657220746f206e6f6e20455243373231526560008201527f63656976657220696d706c656d656e7465720000000000000000000000000000602082015250565b6000612af0603283611bc8565b9150612afb82612a94565b604082019050919050565b60006020820190508181036000830152612b1f81612ae3565b9050919050565b6000612b3182611c78565b91507fffffffffffffffffffffffffffffffffffffffffffffffffffffffffffffffff821415612b6457612b6361239c565b5b600182019050919050565b7f4e487b7100000000000000000000000000000000000000000000000000000000600052601260045260246000fd5b6000612ba982611c78565b9150612bb483611c78565b925082612bc457612bc3612b6f565b5b828204905092915050565b6000612bda82611c78565b9150612be583611c78565b925082612bf557612bf4612b6f565b5b828206905092915050565b7f4e487b7100000000000000000000000000000000000000000000000000000000600052603260045260246000fd5b600081519050919050565b600082825260208201905092915050565b6000612c5682612c2f565b612c608185612c3a565b9350612c70818560208601611bd9565b612c7981611c0c565b840191505092915050565b6000608082019050612c996000830187611d0d565b612ca66020830186611d0d565b612cb36040830185611da3565b8181036060830152612cc58184612c4b565b905095945050505050565b600081519050612cdf81611b2e565b92915050565b600060208284031215612cfb57612cfa611af8565b5b6000612d0984828501612cd0565b91505092915050565b7f4552433732313a206d696e7420746f20746865207a65726f2061646472657373600082015250565b6000612d48602083611bc8565b9150612d5382612d12565b602082019050919050565b60006020820190508181036000830152612d7781612d3b565b9050919050565b7f4552433732313a20746f6b656e20616c7265616479206d696e74656400000000600082015250565b6000612db4601c83611bc8565b9150612dbf82612d7e565b602082019050919050565b60006020820190508181036000830152612de381612da7565b905091905056fe697066733a2f2f516d5077327656635a78366b516a4e63314462753773596d56346a5138626d696f7057646255335476653768446e2fa2646970667358221220982c78732888f7751f29ffaa90e0520f5cd8e0b2532536e8de5a69d83d5139a364736f6c63430008080033",
  "devdoc": {
    "kind": "dev",
    "methods": {
      "approve(address,uint256)": {
        "details": "See {IERC721-approve}."
      },
      "balanceOf(address)": {
        "details": "See {IERC721-balanceOf}."
      },
      "getApproved(uint256)": {
        "details": "See {IERC721-getApproved}."
      },
      "isApprovedForAll(address,address)": {
        "details": "See {IERC721-isApprovedForAll}."
      },
      "name()": {
        "details": "See {IERC721Metadata-name}."
      },
      "ownerOf(uint256)": {
        "details": "See {IERC721-ownerOf}."
      },
      "safeTransferFrom(address,address,uint256)": {
        "details": "See {IERC721-safeTransferFrom}."
      },
      "safeTransferFrom(address,address,uint256,bytes)": {
        "details": "See {IERC721-safeTransferFrom}."
      },
      "setApprovalForAll(address,bool)": {
        "details": "See {IERC721-setApprovalForAll}."
      },
      "supportsInterface(bytes4)": {
        "details": "See {IERC165-supportsInterface}."
      },
      "symbol()": {
        "details": "See {IERC721Metadata-symbol}."
      },
      "tokenURI(uint256)": {
        "details": "See {IERC721Metadata-tokenURI}."
      },
      "transferFrom(address,address,uint256)": {
        "details": "See {IERC721-transferFrom}."
      }
    },
    "version": 1
  },
  "userdoc": {
    "kind": "user",
    "methods": {},
    "version": 1
  },
  "storageLayout": {
    "storage": [
      {
        "astId": 25,
        "contract": "contracts/ArbipunksReboot.sol:ArbipunksReboot",
        "label": "_name",
        "offset": 0,
        "slot": "0",
        "type": "t_string_storage"
      },
      {
        "astId": 27,
        "contract": "contracts/ArbipunksReboot.sol:ArbipunksReboot",
        "label": "_symbol",
        "offset": 0,
        "slot": "1",
        "type": "t_string_storage"
      },
      {
        "astId": 31,
        "contract": "contracts/ArbipunksReboot.sol:ArbipunksReboot",
        "label": "_owners",
        "offset": 0,
        "slot": "2",
        "type": "t_mapping(t_uint256,t_address)"
      },
      {
        "astId": 35,
        "contract": "contracts/ArbipunksReboot.sol:ArbipunksReboot",
        "label": "_balances",
        "offset": 0,
        "slot": "3",
        "type": "t_mapping(t_address,t_uint256)"
      },
      {
        "astId": 39,
        "contract": "contracts/ArbipunksReboot.sol:ArbipunksReboot",
        "label": "_tokenApprovals",
        "offset": 0,
        "slot": "4",
        "type": "t_mapping(t_uint256,t_address)"
      },
      {
        "astId": 45,
        "contract": "contracts/ArbipunksReboot.sol:ArbipunksReboot",
        "label": "_operatorApprovals",
        "offset": 0,
        "slot": "5",
        "type": "t_mapping(t_address,t_mapping(t_address,t_bool))"
      },
      {
        "astId": 1595,
        "contract": "contracts/ArbipunksReboot.sol:ArbipunksReboot",
        "label": "s_tokenCounter",
        "offset": 0,
        "slot": "6",
        "type": "t_uint256"
      },
      {
        "astId": 1597,
        "contract": "contracts/ArbipunksReboot.sol:ArbipunksReboot",
        "label": "s_newTokenCounter",
        "offset": 0,
        "slot": "7",
        "type": "t_uint256"
      },
      {
        "astId": 1603,
        "contract": "contracts/ArbipunksReboot.sol:ArbipunksReboot",
        "label": "original",
        "offset": 0,
        "slot": "8",
        "type": "t_contract(IERC721)981"
      },
      {
        "astId": 1606,
        "contract": "contracts/ArbipunksReboot.sol:ArbipunksReboot",
        "label": "marketingTeam",
        "offset": 0,
        "slot": "9",
        "type": "t_address"
      }
    ],
    "types": {
      "t_address": {
        "encoding": "inplace",
        "label": "address",
        "numberOfBytes": "20"
      },
      "t_bool": {
        "encoding": "inplace",
        "label": "bool",
        "numberOfBytes": "1"
      },
      "t_contract(IERC721)981": {
        "encoding": "inplace",
        "label": "contract IERC721",
        "numberOfBytes": "20"
      },
      "t_mapping(t_address,t_bool)": {
        "encoding": "mapping",
        "key": "t_address",
        "label": "mapping(address => bool)",
        "numberOfBytes": "32",
        "value": "t_bool"
      },
      "t_mapping(t_address,t_mapping(t_address,t_bool))": {
        "encoding": "mapping",
        "key": "t_address",
        "label": "mapping(address => mapping(address => bool))",
        "numberOfBytes": "32",
        "value": "t_mapping(t_address,t_bool)"
      },
      "t_mapping(t_address,t_uint256)": {
        "encoding": "mapping",
        "key": "t_address",
        "label": "mapping(address => uint256)",
        "numberOfBytes": "32",
        "value": "t_uint256"
      },
      "t_mapping(t_uint256,t_address)": {
        "encoding": "mapping",
        "key": "t_uint256",
        "label": "mapping(uint256 => address)",
        "numberOfBytes": "32",
        "value": "t_address"
      },
      "t_string_storage": {
        "encoding": "bytes",
        "label": "string",
        "numberOfBytes": "32"
      },
      "t_uint256": {
        "encoding": "inplace",
        "label": "uint256",
        "numberOfBytes": "32"
      }
    }
  }
}